:4000000080673030303030307e3030307e3030307e3030307e3030307e3030307e3030307e3030307d054a7e7e3030307d04e67e7e3030307d04827e7d040d7e7d040e7e72
:400040007e3030307d060b7e7e3030307d05ae7e7e3030307e3030307e3030307e3030307e3030307e303030711062fa0062e38770ef50202850402850602862e33841fe6a
:40008000fb50804e62e33855f80055f900711062e00270ef62e338627105627505627905627d0562d10750004e62d30762d00062d50062d40071c07c03ab62d0005002570d
:4000c000a40828532018750900284b5120800475090062e300082860d574a04b1875090008285320187509000828a01c531f1875090008283f204720ffb0065dd57460d5eb
:40010000187a1fbfeb8fc9187509000828531f50003f204720ffb0085dd57460d550007a1fbfef188faa18711070ef62e000711062e00043e78070ef62e2007c0cc78fff1d
:4001400050107f3030303030303030303030303030303030303030303030303030303030303030303030303030303030303030303030303030303030303030303030303030
:400180003030303030303030303030303030303030303030303030303030303030303030430041e742004700450346004b0049e74a004f004d034e00230021ff2200270679
:4001c00025ff26002b0029ff2a002f062dff2e00330031ff3200370635ff36003f003d003e003b0039003a006028660063056500e600e700d600b000b100b200b333b433c7
:40020000b500b600b805b900ba10bb33bc33bd00be01c000c100c220c333c433c522c600c856c900ca30cb33cc33cd00ce006c006d006e006f00ff401141154240443145ac
:40024000354644481149154a404c314d354e45200021c62240242025362640280029d62a402c202d362e40300031e632403420353636403c053d003e06380d39003a076100
:40028000006900600062006733683363006600d100d300d000d200e1ffe200dfffde03dd00e700ff192e70ef62000071106200f862010770ef6203006202377110620200fa
:4002c00062030070ef62010062040071106204ff62050070ef620700620600711062060062070070ef62050062080071106208e762091870ef620b18620a007110620a00e0
:40030000620b0070ef620900620c007110620c00620d0070ef620f00620e007110620e00620f0070ef620d00621000711062100062110070ef621300621200711062120035
:4003400062130070ef621100621400711062140062150070ef621700621600711062160062170070ef621500621800711062180062190070ef621b00621a007110621a0075
:40038000621b0070ef621900621c007110621c00621d0070ef621f00621e007110621e00621f0070ef621d0070ef7f7c03b27c02a67f1070ef500067500157a07c03cd506e
:4003c0000167500257377c03cd70ef207f380210084f56fc00d00456fc01182070ef62e30010082839ffa01f4f48fc01a003711054fd18207509001008284f59fd61001821
:40040000207509008fd738fc703f71c07f7e08105dd30858015d3f082108b00418805e1821e0a0122c00493e002120a050413ffe433f0180485d3e470001b041390db01431
:400440002e000162d300703f7180560200703f7100802a3920c02662d3003c010fc011703f7180560200703f71002e0010800e703f71805402703f7100755a011860d32090
:40048000187e7d13027e43e1207f41e1df7f4333017f4133fe7f60315b60357f60325b60367f5d365c5d327f4f38035d33085d32085d36085d305d3654015d32540250006f
:4004c00049f701a0035001540070fe4133fe1860361860321860331820703f71c07e5d305d365c5d327f7d12137e43e1087f41e1f77f432b017f412bfe7f60295b602d7f46
:40050000602a5b602e7f5d2e5c5d2a7f4f38035d2b085d2a085d2e085d285d2e54015d2a5402500049f701a0035001540070fe412bfe18602e18602a18602b1820703f716a
:40054000c07e5d285d2e5c5d2a7f7d11247e43e1027f41e1fd7f4323017f4123fe7f60215b60257f60225b60267f5d265c5d227f4f38035d23085d22085d26085d205d26ce
:4005800054015d225402500049f701a0035001540070fe4123fe1860261860221860231820703f71c07e5d205d265c5d227f7e43df087f41dff77f434b017f414bfe7f6071
:4005c000495b604d7f604a5b604e7f5d4e5c5d4a7f4f5d4e085d4a08414bfe71105d490862490070ef5d4c5d4e085d485d4a085200604e5201604a71105202604970ef438b
:400600004b01182038fd703f71c07f7d11247e43df027f41dffd7f4343017f4143fe7f60415b60457f60425b60467f5d465c5d427f4f5d46085d42084143fe71105d410883
:4006400062410070ef5d445d46085d405d4208520060465201604271105202604170ef434301182038fd703f71c07f104f380452fa13f8540152f91bf7540052fa03f85440
:400680000352f90bf7540252fc130152fb1b00c012520313fc52021bfbc00862d0005001800662d000500038fc207f104f62d000473501a25e500008500208500008508c10
:4006c0000862d00052fc531f52fb08511f089f9b38fa62d0003900a00f552000551f00551e00551d00823b52fc118c52fb190052fa190052f91900d10262d00052fc210193
:40070000531d52fb2100531e52fa2100531f52f9210008511f08511e08511d087c18aa18531d18531e18531f18532052f9531c52fa531b52fb531a52fc531970fb6e1c6e03
:400740001b6e1a6e19511c08511b08511a085119087c18aa18531918531a18531b1808511b08511a0851190850400850000808087c174218531918531a18531b18531c3818
:40078000fc512008511f08511e08511d08511c08511b08511a085119087c150218531d18531e18531f18532038fc504308500c0850000808512008511f08511e08511d0867
:4007c0007c186c18531d18531e18531f18532038fc50420850340850000808512008511f08511e08511d087c165f18531d18531e18531f18532038fc8128508c13fc50000c
:400800001bfb50001bfa50001bf9d10162d00052fc2101531d52fb2100531e52fa2100531f52f9210008511f08511e08511d087c18aa18531d18531e18531f18532052f9af
:40084000531c52fa531b52fb531a52fc531970fb6e1c6e1b6e1a6e19511c08511b08511a085119087c18aa18531918531a18531b1808511b08511a08511908504008500052
:400880000808087c174218531918531a18531b18531c38fc512008511f08511e08511d08511c08511b08511a085119087c150218531d18531e18531f1838fc08511f08510a
:4008c0001e08511d08504308500c08500008087c186c18531d18531e18531f18532038fc36208050420850300850000808512008511f08511e08511d087c165f18531d18dc
:40090000531e18531f18532038fc801662d0002635fe62d000552000551f00551e00551d00207f104f62d000473401a25e500008500208500008508c0862d00052fc531f50
:4009400052fb08511f089d2338fa62d0003900a00f552000551f00551e00551d00823b508c13fc50001bfb50001bfa50001bf9d10262d00052fc2101531d52fb2100531e35
:4009800052fa2100531f52f9210008511f08511e08511d087c18aa18531d18531e18531f18532052f9531c52fa531b52fb531a52fc531970fb6e1c6e1b6e1a6e19511c0831
:4009c000511b08511a085119087c18aa18531918531a18531b1808511b08511a0851190850400850000808087c174218531918531a18531b18531c38fc512008511f0851f7
:400a00001e08511d08511c08511b08511a085119087c150218531d18531e18531f18532038fc504308500c0850000808512008511f08511e08511d087c186c18531d18532f
:400a40001e18531f18532038fc50420850340850000808512008511f08511e08511d087c165f18531d18531e18531f18532038fc812852fc118c52fb190052fa190052f9b6
:400a80001900d10162d00052fc2101531d52fb2100531e52fa2100531f52f9210008511f08511e08511d087c18aa18531d18531e18531f18532052f9531c52fa531b52fb7d
:400ac000531a52fc531970fb6e1c6e1b6e1a6e19511c08511b08511a085119087c18aa18531918531a18531b1808511b08511a0851190850400850000808087c17421853ee
:400b00001918531a18531b18531c38fc512008511f08511e08511d08511c08511b08511a085119087c150218531d18531e18531f1838fc08511f08511e08511d08504308a8
:400b4000500c08500008087c186c18531d18531e18531f18532038fc36208050420850300850000808512008511f08511e08511d087c165f18531d18531e18531f1853200a
:400b800038fc801662d0002634fe62d000552000551f00551e00551d00207f4304104040404040404040404040404040404040404104ef7f104f380262d000473301a0f5dd
:400bc00062d000512654015125540062d0002633fe9fc862d00052012101531f520021005320511f531d5120531e471e80a009551fff5520ff800a62d000551f0055200062
:400c000062d000512008511f08511e08511d087c18aa18531d18531e18531f1853205201531b5200531c70fb6e1c6e1b511b5319511c531a471a80a009551bff551cff80a5
:400c40000a62d000551b00551c0062d000511c08511b08511a085119087c18aa18531918531a18531b1808511b08511a0851190850400850000808087c174218531918534d
:400c80001a18531b18531c38fc512008511f08511e08511d08511c08511b08511a085119087c150218531d18531e18531f18532038fc801062d000552042551fa2551e003e
:400cc000551d0038fe207f104f3823710162d00055340062d00055350062d000553300107c05567c054e7c04f27c04ea7c048e7c0486209ea6107c06177c05b720841f6240
:400d0000d000512462d000531d62d000512362d000531e50000808511e08511d08998c62d0005120540c511f540d511e540e511d540f520c08520d08520e08520f087c1968
:400d40001538f862d00051205419511f541a511e541b511d541c62d000512e62d000531d62d000512d62d000531e50000808511e08511d089bad62d00051205410511f547e
:400d800011511e5412511d54135210085211085212085213087c191538f862d00051205400511f5401511e5402511d54035000080808085210085211085212085213087c10
:400dc000160238f839ffa009561e01561d008007561e00561d0062d000521e54149dd562d00051205415511f5416511e5417511d541850420850a0085000080852150852ab
:400e000016085217085218087c160238f83900a0163901a0123d1400a00d560000560100560200560300520054045201540552025406520354075200540852015409520250
:400e4000540a5203540b500008080808520c08520d08520e08520f0862d0007c160238f83900a0633901a05f52005408520154095202540a5203540b521908521a08521bcf
:400e800008521c08503f08508008500008087c186c18531d18531e18531f1838fc08511f08511e08511d085200085201085202085203087c174218540718540618540518e0
:400ec000540438fc807f500008080808520c08520d08520e08520f0862d0007c160238f83900a0613901b05d52005404520154055202540652035407521908521a08521bda
:400f000008521c08503f08508008500008087c186c18531d18531e18531f1838fc08511f08511e08511d085200085201085202085203087c174218540b18540a1854091853
:400f4000540838fc3d1400a00f4304084104fd43042041047f800d4104f74304024104df430480520408520508520608520708504408507a085000080862d0007c174218bd
:400f8000540718540618540518540438fc5000080808085204085205085206085207087c150218540718540618540518540438fc520808520908520a08520b08504408505a
:400fc0007a08500008087c174218540b18540a18540918540838fc500008080808520808520908520a08520b087c150218540b18540a18540918540838fc5047085000089e
:4010000008085204085205085206085207087c160238f839ffa04750470850000808085204085205085206085207087c186c18531d18531e18531f1838fc08511f08511ee4
:4010400008511d087c13f118531f18532038fe511f0100542051200980541f802362d0005204085205085206085207087c13f118531f18532038fe511f54205120541f10df
:40108000521f085220207c0625205047085000080808520808520908520a08520b0862d0007c160238f839ffa0475047085000080808520808520908520a08520b087c188b
:4010c0006c18531d18531e18531f1838fc08511f08511e08511d087c13f118531f18532038fe511f01005422512009805421802362d000520808520908520a08520b087c30
:4011000013f118531f18532038fe511f542251205421105221085222207c05c5208be138dd208fff71c0085dd0085dd3085dd4085dd50862d000512008511f08511e0851dc
:401140001d08511c08511b08511a0851190851180851170851160851150851140851130851120862d000473502a049107c056a62d0005a202008512062d000532b18532c5a
:40118000711041207f70cf62d0002635fd62d000512262d000122c62d000532462d000512162d0001a2b62d000532362d0002e35018023107c056a62d0005a20200851200b
:4011c00062d0005321185322711043208070cf62d0002e350262d00018531218531318531418531518531618531718531818531918531a18531b18531c18531d18531e1891
:40120000531f1853201860d51860d41860d31860d0187e71c0085dd0085dd3085dd4085dd50862d000512008511f08511e08511d08511c08511b08511a0851190851180887
:4012400051170851160851150851140851130851120862d000473402a049107c050662d0005a202008512062d000532f185330711041287f70cf62d0002634fd62d0005166
:401280003262d000123062d000532e62d000513162d0001a2f62d000532d62d0002e34018023107c050662d0005a202008512062d0005331185332711043288070cf62d0b0
:4012c000002e340262d00018531218531318531418531518531618531718531818531918531a18531b18531c18531d18531e18531f1853201860d51860d41860d31860d070
:40130000187e71c0085dd0085dd3085dd4085dd50862d000512008511f08511e08511d08511c08511b08511a08511908511808511708511608511508511408511308511226
:401340000862d000473302a049107c04a262d0005a202008512062d0005327185328711041307f70cf62d0002633fd62d000512a62d000122862d000532662d0005129620e
:40138000d0001a2762d000532562d0002e33018023107c04a262d0005a202008512062d000532918532a711043308070cf62d0002e330262d0001853121853131853141875
:4013c000531518531618531718531818531918531a18531b18531c18531d18531e18531f1853201860d51860d41860d31860d0187e104f5dd00862d00052fa6a52f96a6e62
:40140000142ffa8056f900117fd00b500054fa54fb54fc802a3937dff31117c010a01966fc6cfb6cfa6cf978bff6800c73746ffa6ffb6ffc78bff86b14d0047c18751860e6
:40144000d020703f71c07fd02052f9b006471201a01776120e13000e1400d00d76203c20ffb006186a7d14b8186b146a6e206e147d148a500053205314531353127f7c14d1
:40148000737a206e1468147d148a4f512054f7511454f8511354f9511254fa1853201860d020703f71c07f52fc531252fb531352fa531452f953207f7c14735520ff6e203b
:4014c0006e147d148a7c14736e207d148a52fa6a52f96ab003747f74a00450007f52fa642bfb2bfca00450047f50027f6cfa52f933f56cf96d71046ffa66f66cf571046f3c
:40150000f67f104f5dd00862d0005120085b110453207c14cd53144d207c14cd4d2053132a14a0343904c0047d147e2102a0192214b0094d207c14a77d148a2213aff752da
:40154000f933f5bfe48fef5114afeb2213afe552f923f56a7d14c57c14ec086a2180531452fc13f852fb1bf752fa1bf652f91bf5d0074d20183214085120087c14a720134b
:40158000f956f900a01a391ac0047d146870fb6ffa6ffb6ffc6ff9d0042ff90178bff118082140b02652fc041252fb0c1352fa0c14d04b3c20feb006186a7d14b876206e56
:4015c000142e14806e136e128036500013f954f952fc1c1252fb1c1352fa1c1452f92a122a132a14a00a471480b0137a20b005187d14c566f96b126b136b148fea66f97d0c
:401600001447104f5dd00862d00052fa2bf66ac00852f92bf564a03d52f9531433f5531327f57f52fc13f8531252fb1bf72c1252fa1bf62c1252f9217f1bf52a126e126b4b
:40164000132900c007a00e511234146b145000c0037473735c1860d05b20703f71c07f104f5dd00862d00051200852f933f5085b110453207c14cd53144d207c14cd4d200c
:4016800053132a14a0263904c005187d147e51142213bff73c1401b006186a7d14c5c006186a7d14b86e13dff18ff67c14ec17f57f52f9c00713f5d0098fdf13f5c0038f3f
:4016c000e0afd70852f6642bf82bf7b00e1839ffafcf54f97c14a77d1468500054f95312552019471201b01252f815fc52f71dfb52f61dfa1ff900801052f805fc52f70d72
:40170000fb52f60dfa0ff9007a20a0116cfc6cfb6cfa6cf96b126b136b148fc818471480a00c55200178b0038f70088fe039ffaf70532050ff35f934123413341466f97df3
:401740001447104f5dd00862d00051200852f933f5085b110453207c14cd53144d207c14cd4d2053132a14a0153902a007c00a187d147e186a7d14b8186a7d14c57c14ec2b
:4017800052f903f5c007117fd0098fed117fc0038fe239ffafde0852fa642bfb2bfcb00e58207c14a718afd153207d146852f6642bf72bf8afed52fc531352f87c188d0887
:4017c0005f121452f77c188d021254f95f20140e200052f67c188d04205f12140e120052fb531352f87c188d05f91833f9a00350010851140c200e120052f77c188d04200b
:4018000051140c1256f5000ff50052f67c188d041251140df552fa531352f87c188d0420182a2054f951140c1250000df553200c2052f77c188d041251140df50e20005225
:40184000f67c188d03f5531351200c1418471480b00b66f96b126b136b1480067439ffaf1321ffaf14532066f97d1447104f37f580207d150237fcff77fc37fbff0ffb00bb
:4018800037faff0ffa0037f9ff0ff9007f531460e8511360e95dea471480a0030213471380a003021453145deb7f104f5dd00862d00052f953136ad0047c18755514965233
:4018c000f9b0182bfa2bfb2bfca04248fa80b03266fc6cfb6cfa7a148ff255120076146d6ffa6ffb6ffc6e1221ffbff26b12d012b00648fc01a00b500077fc0dfb0dfa0c21
:40190000146cfa6b1351146d54f96ffa1860d020703f71c07f62d000104f52fc531d52fb531e52fa531f52f9217f5320207f00210015ff0030303030303030303030303023
:401940003030303030303030303030303030303030303030303030303030303030303030303030303030303030303030303030303030303030303030303030303030303067
:401980003030303030303030303030303030303030303030303030303030303030303030303030303030303030303030303030303030303030303030303030303030303027
:4019c00030303030303030303030303030303030303030303030303030303030303030303030303030303030303030303030303030303030303030303030303030303030e7
:401a000030303030303030303030303030303030303030303030303030303030303030303030303030303030303030303030303030303030303030303030303030303030a6
:020000040010ea
:020000040020da
:0200000090c6a8
:00000001ff
