:4000000080673030303030307e3030307e3030307e3030307e3030307e3030307e3030307e3030307d048b7e7e3030307d04f37e7e3030307d048f7e7d04167e7d04177e06
:400040007e3030307d06147e7e3030307d05b77e7e3030307e3030307e3030307e3030307e3030307e303030711062fa0062e38770ef50202850402850602862e33841fe58
:40008000fb50804e62e33855f80055f900711062e00270ef62e338627105627505627905627d0562d10750004e62d30762d00062d50062d40071c07c03ab62d0005002570d
:4000c000a40828532318750900284b5123800475090062e300082860d574a04b1875090008285323187509000828a01c53221875090008283f234723ffb0065dd57460d5d9
:40010000187a22bfeb8fc9187509000828532250003f234723ffb0085dd57460d550007a22bfef188faa18711070ef62e000711062e00043e78070ef62e2007c09008fffd8
:4001400050107f3030303030303030303030303030303030303030303030303030303030303030303030303030303030303030303030303030303030303030303030303030
:400180003030303030303030303030303030303030303030303030303030303030303030430041e742004700450346004b0049e74a004f004d034e00230021ff2200270679
:4001c00025ff26002b0029ff2a002f062dff2e00330031ff3200370635ff36003f003d003e003b0039003a006028660063056500e600e700d600b000b100b200b333b433c7
:40020000b500b600b815b900ba10bb33bc33bd00be21c000c100c220c333c433c522c600c856c900ca30cb33cc33cd00ce006c006d006e006f00ff40114111424044314580
:40024000314644481149164a004c314d364e05200021c62240242025362640280029d62a402c202d362e40300031f632403420353636403c053d003e06380d39003a076172
:40028000006900600062006733683363006600d100d300d000d200e1ffe200dfffde02dd00e700ff0cac70ef62000071106200f462010b70ef6203006202ff7110620200c2
:4002c00062030070ef62010062040071106204006205ff70ef6207ff620600711062060062070070ef620500620800711062087f62098070ef620b80620a007110620a0079
:40030000620b0070ef620900620c007110620c00620d0070ef620f00620e007110620e00620f0070ef620d00621000711062100062110070ef621300621200711062120035
:4003400062130070ef621100621400711062140062150070ef621700621600711062160062170070ef621500621800711062180062190070ef621b00621a007110621a0075
:40038000621b0070ef621900621c007110621c00621d0070ef621f00621e007110621e00621f0070ef621d0070ef7f55020055037f5504807c03bb7c02a67f1070ef5000a9
:4003c00067500157a07c03d6500167500257377c03d670ef207f380210084f56fc00d00456fc01182070ef62e30010082839ffa01f4f48fc01a003711054fd182075090022
:400400001008284f59fd610018207509008fd738fc703f71c07f7e08105dd30858015d3f082108b00418805e1821e0a0122c00493e002120a050413ffe433f0180485d3e16
:40044000470001b041390db0142e000162d300703f7180560500703f7100802a3920c02662d3003c010fc011703f7180560500703f71002e0010800e703f71805405703ff0
:400480007100755a011860d320187e7d09407e7d0b1e7e43e1207f41e1df7f4333017f4133fe7f60315b60357f60325b60367f5d365c5d327f4f38035d33085d32085d361d
:4004c000085d305d3654015d325402500049f701a0035001540070fe4133fe1860361860321860331820703f71c07e5d305d365c5d327f7d0a2f7e43e1087f41e1f77f4304
:400500002b017f412bfe7f60295b602d7f602a5b602e7f5d2e5c5d2a7f4f38035d2b085d2a085d2e085d285d2e54015d2a5402500049f701a0035001540070fe412bfe1811
:40054000602e18602a18602b1820703f71c07e5d285d2e5c5d2a7f43e1027f41e1fd7f4323017f4123fe7f60215b60257f60225b60267f5d265c5d227f4f38035d23085d88
:4005800022085d26085d205d2654015d225402500049f701a0035001540070fe4123fe1860261860221860231820703f71c07e5d205d265c5d227f7e43df087f41dff77f33
:4005c000434b017f414bfe7f60495b604d7f604a5b604e7f5d4e5c5d4a7f4f5d4e085d4a08414bfe71105d490862490070ef5d4c5d4e085d485d4a085200604e5201604a34
:4006000071105202604970ef434b01182038fd703f71c07f7e43df027f41dffd7f4343017f4143fe7f60415b60457f60425b60467f5d465c5d427f4f5d46085d420841433a
:40064000fe71105d410862410070ef5d445d46085d405d4208520060465201604271105202604170ef434301182038fd703f71c07f081028b00420187f9044201875dff2b1
:40068000748fef303132333435363738394142434445460867676767210fffe7902118210fffe0901a7f4b9fea5b9fe77f70bf60d35200a0069008758ff8703f71c07f90da
:4006c000650867676767210f903b18210f40404090337f90510867676767210f900918210f40404090017f0862d0002602805102600818210f29102a026008530240218f4f
:40070000530260087f0862d0002602802e02205102600818210f29302a02600853024021af530260087f0862d000260280510260082603f051037110600870ef2e024051a7
:40074000026008401057ff2e02505102600840405d08082602c0510260084040402e02505102600840402602c051026008182108a00479bfd3202e037f5103711060087013
:40078000ef187f62d0002603802e037f2604805103711060085104600970ef50fa906750fa906350039f405052905b50039f3890639061905f50039f2e505a904950029f56
:4007c00026505a904150089f0a505a903950019f02505a903150069efa500e9ef6502c9ef250089eee500c9eea50039ee6505a90157f80c094d4210310fff74f03ff209e4d
:40080000d2703f71c07f900c78bffc7f08193a7c010101010871105de070ef21073905d006ffe978bffe187f4f1052fd59fc703f71c09fc2203dfa00b005500080113dfae1
:4008400006d00752fa15fa8006500617fa059e6f7bfbbfe2703f71c07f4f52fd210308ff9103fc9e6e3dfa00b005502080133dfa09d00952fa7856fa00800617fa08500754
:400880009e3d18787bfbbfd7703f71c07f4f080850409e3f56000156010852003b01d0055000800350ff9e177b01bfef77003d0009bfe51818500c9e1a703f71c07f001068
:4008c000181c1e1f1f001008040201004f3803540250409dfe56000056010852003d0200b005ffda8003ffdd9dd57b01bfee77003d0007bfe438fd500c9dd8703f71c07fad
:40090000710162d00055360062d00055370062d000553800107c055f7c05577c04ff7c04f77c049b7c04937c061d7c05c07c078320620480800792db92fd931f8ff98fffe8
:4009400071c0085dd0085dd3085dd4085dd50862d000512308512208512108512008511f08511e08511d08511c08511b08511a0851190851180851170851160851150862ef
:40098000d000473602a049107c057362d0005a232008512362d0005326185327711041207f70cf62d0002636fd62d000513162d000122762d000532f62d000513062d00090
:4009c0001a2662d000532e62d0002e36018023107c057362d0005a232008512362d0005330185331711043208070cf62d0002e360262d000185315185316185317185318b7
:400a000018531918531a18531b18531c18531d18531e18531f1853201853211853221853231860d51860d41860d31860d0187e71c0085dd0085dd3085dd4085dd50862d0c6
:400a400000512308512208512108512008511f08511e08511d08511c08511b08511a0851190851180851170851160851150862d000473702a049107c051362d0005a23208d
:400a800008512362d0005332185333711041287f70cf62d0002637fd62d000513562d000123362d000532562d000513462d0001a3262d000532462d0002e37018023107cb3
:400ac000051362d0005a232008512362d0005334185335711043288070cf62d0002e370262d00018531518531618531718531818531918531a18531b18531c18531d1853b5
:400b00001e18531f1853201853211853221853231860d51860d41860d31860d0187e71c0085dd0085dd3085dd4085dd50862d000512308512208512108512008511f08511b
:400b40001e08511d08511c08511b08511a0851190851180851170851160851150862d000473802a04f107c04af62d0005a232008512362d000532a18532b711041307f70fb
:400b8000cf62d0002638fd62d000512d62d000122b62d000532962d000512c62d0001a2a62d000532862d0002e380162d0005539018023107c04af62d0005a2320085123b3
:400bc00062d000532c18532d711043308070cf62d0002e380262d00018531518531618531718531818531918531a18531b18531c18531d18531e18531f1853201853211847
:400c000053221853231860d51860d41860d31860d0187e62d000473601a01c10500057007c07f662d000512e08512f207c06a62062d0002636fe7f62d000473701a01c102a
:400c4000570050057c07f662d0005124085125207c06a62062d0002637fe7f104f380462d0003c3900b0194304014040404040404040404040404040404040404104fe623e
:400c8000d000473801a02210500557057c07f662d0005128085129207c06a62062d0002638fe62d00055390038fc207f00240016ff00303030303030303030303030303059
:400cc00030303030303030303030303030303030303030303030303030303030303030303030303030303030303030303030303030303030303030303030303030303030f4
:400d000030303030303030303030303030303030303030303030303030303030303030303030303030303030303030303030303030303030303030303030303030303030b3
:400d40003030303030303030303030303030303030303030303030303030303030303030303030303030303030303030303030303030303030303030303030303030303073
:400d80003030303030303030303030303030303030303030303030303030303030303030303030303030303030303030303030303030303030303030303030303030303033
:020000040010ea
:020000040020da
:02000000799aeb
:00000001ff
